:060000000A128A110E280D
:10000800FE00030EF1000408F2000A08F3000A12C9
:100018008A111B290A128A11112883133430FD0012
:100028000130FE00A930FF00203084000A128A1136
:10003800C1210A128A11F801F90183010A128A11F1
:1000480092298316031788018901831603130F0861
:100058008F3940388F000F148501870108108810E8
:1000680008118B1783120313860183160313811259
:1000780081110115811401100B118B16FC308312AC
:10008800031381006430B8000030B9007708BB0062
:100098007608BA000A128A11B2200A128A1183124B
:1000A80003133908CA003808C9000A30B8000030FC
:1000B800B9004A08B5004908B4009C30B600FF30C2
:1000C800B7000A128A116B210A128A117608831264
:1000D80003133407BA0077080318770A3507BB00FB
:1000E8000A128A11B2200A128A11831203133908DC
:1000F800C8003808C7004A08B5004908B4009C3051
:10010800B600FF30B7000A128A116B210A128A1151
:10011800831203133408C1003508C2004808B5002B
:100128004708B400F630B600FF30B7000A128A114B
:100138006B210A128A118312031334084107C30082
:1001480035080318350A4207C40076084307C50076
:1001580077080318770A4407C600080083120313B8
:10016800BE01B91FB828B928C028B809B909B80A02
:100178000319B90ABE01BE0ABB1FC328C428CD286B
:10018800BA09BB09BA0A0319BB0A0130BC003C080A
:10019800BE06BF01C001380839040319D428D52880
:1001A8000C29BD01BD0AE32801300310B80DB90DB3
:1001B800FF3E031DD9280130BC003C08BD07B91F0C
:1001C800E628E728D82801300310BF0DC00DFF3EF0
:1001D800031DE82839083B02031DF42838083A02B1
:1001E800031CF728F828FF283808BA023908031C26
:1001F800BB03BB023F1401300310B90CB80CFF3E1F
:10020800031D00290130BD02031D0B290C29E72815
:100218003E080319102911291629BF09C009BF0A68
:100228000319C00A4008B9003F08B80008000B1DB0
:100238001E291F296229FC308312031381000B1128
:1002480008108810081178087904031D2C292D2915
:100258003B2908144508F0007007203E84008313EA
:10026800000887000130F8000030F900622978039F
:100278007904031D402941294F2988144708F000B3
:100288007007203E84008313000887000230F800BE
:100298000030F9006229023078067904031D5529D7
:1002A8005629622908154908F0007007203E840085
:1002B800831300088700F801F901622973088A008E
:1002C80072088400710E8300FE0E7E0E0900F40190
:1002D800F50183120313341C72297329792936080E
:1002E800F4070318F50A3708F50701300310B60DAF
:1002F800B70DFF3E031D7A2901300310B50CB40C6D
:10030800FF3E031D812934083504031D8C298D29DE
:100318006D297508B5007408B4000800831203132A
:1003280086018801C901CA01C701C801C501C60102
:10033800E730F6000330F7000A128A1125200A1266
:100348008A11A5290A128A110E28BF34003486346E
:100358000034DB340034CF340034E6340034ED3478
:100368000034FD34003487340034FF340034EF3473
:1003780000347E088A007F0882000A128A11BD2193
:100388000A128A118000840A04087D0603190034C1
:08039800FF0A0319FE0AC12946
:08400000FF3FFF3FFF3FFF3FC0
:04400E00D420FF3F7C
:00000001FF
